:04000000A031002803
:1000080070084001A3007108A2007208A1008031A5
:100018004E018C1E0C298C1201304001A8070030BB
:10002800A93DAA3DAB3D0030F0002706031D262858
:1000380070082606031D262870082506031D262895
:100048002408003A03192E280130A4020030A53BE9
:10005800A63BA73B0030F0005B06031D3D28700857
:100068005A06031D3D2870085906031D3D285808E7
:10007800003A031945280130D8020030D93BDA3B51
:10008800DB3BC0309C00E0309D004101520840013C
:100098002B02031D5F284101510840012A02031D5C
:1000A8005F284101500840012902031D5F284101D2
:1000B8004F0840012802031C0C290A304101CF07D0
:1000C8000030D03DD13DD23D40018D1A6D287214CB
:1000D8006E2872108F187228031473280310721870
:1000E80079280318792872107A287214721C9C28AF
:1000F80042015B084001A40042015C084001A500E0
:1001080042015D084001A60042015E084001A700C7
:10011800420164084001D800420165084001D90045
:10012800420166084001DA00420167084001DB002D
:100138008D1AA0280314A1280310031CBF28FA3025
:1001480065020318A828E50A6508193A031DAE28B0
:100158004201631740016508FA3A0130031D003077
:10016800F100F001161AF00A7108F0050319BE280B
:100178004201E315D62840016508023C0130031806
:100188000030F10019306502013003180030F0002A
:100198007108F0050319D528420163154001E501EE
:1001A800D628E50140018F18DB280314DC2803104A
:1001B800031CF5281930410157020318E428D70A0F
:1001C8005708143A0130031D0030F100F0014001D6
:1001D8000F19F00A7108F0050319F4284201E31613
:1001E8000C2941015708013C013003180030F10087
:1001F8000A305702013003180030F0007108F0058A
:1002080003190B29420163164101D7010C29D701B3
:1002180040012308F0002208F1002108F20009003B
:100228004001F801F9011030FC00710DF80DF90DCD
:100238007408F8027508031C750FF90203182B29B6
:100248007408F80775080318750FF9070310F00DFF
:08025800F10DFC0B192908004F
:10026000400196154230FD00FD0B342900001615A3
:100270004230FD00FD0B3A29000016114230FD000E
:10028000FD0B4029000096114230FD00FD0B462970
:040290000000080062
:10029400F10108307102031867294501A91B55298A
:1002A400400116115729400116154230FD00FD0B7F
:1002B4005929000096154230FD00FD0B5F2900000E
:1002C40096114501A935F10A4B2940011615423012
:1002D400FD00FD0B6B290000961500300C19013050
:1002E400F2004230FD00FD0B7529000096114230EA
:0E02F400FD00FD0B7B2900007208F0000800E1
:100302004501A60105302602031891292608240773
:1003120086000030253D870020308100A60A83290F
:100322002608240786000030253D87008101A603A8
:1003320026082407A7000030253DA8000A30F40053
:10034200F5012208F0002308F10014217808F000DA
:100352007908F1003030F0074501270886002808A7
:100362008700700881000A30F400F5012208F000CD
:100372002308F100142170084501A2007108A300AE
:1003820000307106031DC72900307006031DCA29FB
:08039200CC29A60399290800FB
:0C039A003A30FD00FD0BCF2900000800E8
:1003A60040012230FC00F801F901FA01FB01FC03CF
:1003B6000319082A0310FB0CFA0CF90CF80CF30CC1
:1003C600F20CF10CF00C031CDA29FC030319FA29D0
:1003D6007408F80775080318750FF90776080318E7
:1003E600760FFA0777080318770FFB07DE297408DC
:1003F600F80775080318750FF90776080318760FBE
:0C040600FA0777080318770FFB070800BF
:100412004101640845012307A60030214101650816
:100422004501A9004A214501A9014A2145012208A5
:10043200B03EA9004A21450126080F3C031C252A8B
:100442002608A400A501362A2608F200F236F23662
:10045200F236F2367208A5007208F000F035F03577
:10046200F035F03570082602A4002408A9004A21BC
:1004720045012508103EA9004A21302141016508A5
:100482004501A9004A2140304501A9004A2108003E
:0E049200F201F101F001F801F3010030080061
:1004A0007B15FB1F5A2A0130F300F201F101F00124
:0804B000FA0DF20CFF30080008
:1004B800400116114230FD00FD0B602A0000961520
:1004C8004230FD00FD0B662A000016154230FD0083
:0804D800FD0B6C2A0000080076
:1004E000FB14FB1F7A2AFF30F300F200F100F0004A
:0804F000FA0DF20CFF300800C8
:0804F800FA1FF21300300800A6
:1005000040017008F100F0010830FC007108F40CA3
:1005100003188E2AFC0B872AF10100340310932A5A
:10052000F40C0318F107F10CF00CFC0B902A0800F6
:100530003021410165084501A9004A2140304501AB
:10054000A9004A214401E8016808073C031CBC2AB1
:1005500068084501A200A30109224401E701440102
:10056000803067020318B92AE70A4501A9014A2128
:0C057000AF2A4401E80AA42A5C2208001B
:10057C003021410165084501A9004A21803045011F
:10058C00A9004A21440167084501A9004A215C22BF
:02059C00080055
:10059E00440167084501A200440168084501A30013
:1005AE0009224401EC016B086C020318092B6C083C
:1005BE006907840000306A3D850020300002EE009D
:1005CE00ED0105306D020318032B6E08F0000530A7
:1005DE00F400802244016D08F0070030F13DFD303B
:1005EE0070078400A030713D850000084501A90008
:1005FE004A214401ED0AE82A4501A9014A21440194
:08060E00EC0ADA2A5C22080064
:10061600A0017208031D202B7108F2007008F1007A
:10062600F001A0157208031D202B7108F200F101DC
:10063600A0112016720803192E2B2008F302031DA1
:10064600031C322B0310F21B362BF00DF10DF20DAD
:10065600F30B262B322B0130FC004922392B0230BA
:0E066600FC005022392B0430FC007C220800DE
:100674007C18702BFC18412B7C198F2B3A2BA00172
:100684007208031D612B7108F2007008F1007808EC
:10069400F000F801A0157208031D612B7108F20027
:1006A4007008F100F001A01120167208031D612BDF
:1006B4007108F200F101A01572080319832B2008B8
:1006C400F302031D031C872B0310F21B702BF80D80
:1006D400F00DF10DF20DF30B672B872B7B1B701CB8
:1006E4008B2BF81F8B2BF00A0319F10A0319F20A5A
:1006F400031D8B2BF20CF10CF00CF30A03198F2B56
:100704008B2B0130FC004922922B0230FC0050223A
:10071400922B0430FC007C22922B0830FC007022C7
:0407240000000800C9
:06072800FB15FF30080084
:10072E003F304401670541019E00CD2113140000A6
:10073E00131CA22B9F2B0C08F0000D08F1000800D3
:10074E004401ED01EE0167084501A000440168086F
:10075E004501A100803044016806F000803070022F
:10076E00031DBB2B003067020318CC2B0130ED00AC
:10077E000030EE006708003C4501A0004401680807
:10078E00031C013E4501A101A10245012008A20062
:10079E002108A300440169084501A40044016A0828
:1007AE004501A500812106304401EB000030EC002C
:1007BE006C08003C031DE52B6B08003C0318002C55
:1007CE006B08690786006C086A3D870001306B0272
:1007DE00F00000306C3BF10070086907840071086E
:1007EE006A3D8500000881000130EB020030EC3BD1
:1007FE00DF2B690886006A088700203081006D08AB
:10080E006E040319262CEB01EC016B0869078400BA
:10081E006C086A3D85000008203A031D1A2CEB0A6D
:10082E000319EC0A0C2C0130EB020030EC3B6B0888
:10083E00690786006C086A3D87002D30810008002C
:10084E003021410165084501A9004A21403045018A
:10085E00A9004A21440167084501A2004401680825
:10086E004501A30009224401EC016B086C02031838
:10087E00F52C6C086907840000306A3D850000087D
:10088E00003A031D4C2CEE01552C6C0869078400B0
:10089E0000306A3D850020300002EE00ED016D084B
:1008AE00043C031CEC2C6E08F0000530F400802292
:1008BE0044016D08F0070030F13DFD3070078400F3
:1008CE00A030713D85000008EF006708023A031959
:1008DE00B02CEF19752C4501A013772C4501A017EC
:1008EE004401EF197D2C450120137F2C4501201763
:1008FE0044016F19852C4501A012872C4501A016C5
:10090E0044016F198D2C450120128F2C45012016A4
:10091E004401EF18952C4501A011972C4501A01507
:10092E004401EF189D2C450120119F2C45012015E7
:10093E0044016F18A52C4501A010A72C4501A01449
:10094E0044016F18AD2C45012010AF2C4501201429
:10095E00E22C44016F19B62C4501A013B82C4501A9
:10096E00A01744016F19BE2C45012013C02C450160
:10097E0020174401EF18C62C4501A012C82C4501C2
:10098E00A0164401EF18CE2C45012012D02C4501A3
:10099E00201644016F18D62C4501A011D82C450104
:1009AE00A01544016F18DE2C45012011E02C4501E5
:1009BE002015A01020102008A9004A21450120086A
:1009CE00A9004A214401ED0A562C4501A9014A21EC
:1009DE004501A9014A214401EC0A3C2C670A450154
:1009EE00A200440168084501A30009224401EC015C
:1009FE006B086C020318C62D6C0869078400003062
:100A0E006A3D85000008003A031D0F2DEE01182DDA
:100A1E006C086907840000306A3D850020300002B2
:100A2E00EE00ED016D08043C031CBD2D6E08F000B8
:100A3E000530F400802244016D08F0070030F13DCE
:100A4E00FD3070078400A030713D85000008EF0076
:100A5E006708023A0319732DEF1B382D4501A013B9
:100A6E003A2D4501A0174401EF1B402D45012013DF
:100A7E00422D4501201744016F1B482D4501A01240
:100A8E004A2D4501A01644016F1B502D4501201221
:100A9E00522D450120164401EF1A582D4501A01183
:100AAE005A2D4501A0154401EF1A602D4501201164
:100ABE00622D4501201544016F1A682D4501A010C5
:100ACE006A2D4501A01444016F1A702D45012010A6
:100ADE00722D45012014B32D44016F1B792D450154
:100AEE00A0137B2D4501A01744016F1B812D4501DD
:100AFE002013832D450120174401EF1A892D45013E
:100B0E00A0128B2D4501A0164401EF1A912D45011F
:100B1E002012932D4501201644016F1A992D45017F
:100B2E00A0119B2D4501A01544016F1AA12D450161
:100B3E002011A32D450120154401EF19A92D4501C2
:100B4E00A010AB2D4501A0144401EF19B12D4501A4
:100B5E002010B32D450120142008A9004A2145017B
:100B6E002008A9004A214401ED0A192D4501A901C9
:100B7E004A214501A9014A214401EC0AFF2C5C22BD
:020B8E0008005D
:100B90004001FB01FA01F9018030F800F10CF00C82
:100BA000031CDB2D7408F90775080318750FFA0785
:100BB0000318FB0A0310F01FE32D7408FA077508E9
:100BC0000318750FFB07FB0CFA0CF90CF80C031C4F
:100BD000CE2D7B08F3007A08F2007908F10078083E
:040BE000F000080019
:100BE40040304401E9001F30EA00EB01EC014030E1
:100BF400F0001F30F1000030F2000030F30067080D
:100C0400F4006808F500F601F701D32170084401E7
:100C1400E9007108EA007208EB007308EC00003088
:100C24007302031D1F2E00307202031D1F2E02309B
:100C34007102031D1F2EB23070020318222E512E92
:100C4400B230E9020230EA3B0030EB3BEC3B0530CA
:100C5400F00070080319342EEC36EB0CEA0CE90CA6
:100C6400FF3E2C2E6908F0006A08F1006B08F200C0
:100C74006C08F3000130E9020030EA3BEB3BEC3B4B
:100C840070087104720473040319512E00000000EB
:100C9400000000000000000000000000342E0800E6
:100CA40097304301B0000330B1006730B200023026
:100CB400B30041019301940195019601EC309A052A
:100CC400133044016705F000700841019A04C030F4
:100CD40044016705F0000319852EC0306705F20052
:100CE4000630F1007208F000710803197C2EF0360A
:100CF400FF3E772E700852018C008C170C1B842E3B
:100D04000000802E882E5201FC308C054101131600
:060D1400131593170800FF
:100D1A00003044016506031D942E00306406031D4D
:100D2A00A22E0230E7003C30E8004C30E9000130E6
:100D3A00EA000430EB002724C12E44016408E700CE
:100D4A006508E800A830E9000130EA00A72343015A
:100D5A002B08A0002E30A1002C08A2002D08A30009
:100D6A0002304401E7003C30E800A030E9000130DD
:0A0D7A00EA000430EB002724080013
:100D84004401E4010A3064020318E52E30214101D4
:100D940065084501A9004A217008003A031DD32EB5
:100DA400E52E5C220D30FB002D30FC00D730FD0019
:100DB400FD0BDA2EFC0BDA2EFB0BDA2E0000000002
:100DC4004401E40AC42E4501A9014A21AE3045017B
:100DD400A9004A21D5304501A9004A2180304501A6
:100DE400A9004A21A8304501A9004A213F30450104
:100DF400A9004A21D3304501A9004A2141015608DE
:100E04004501A9004A2140304501A9004A218D30FD
:100E14004501A9004A2114304501A9004A21813025
:100E24004501A9004A21FF304501A9004A21D930D2
:100E34004501A9004A21F1304501A9004A21203089
:100E44004501A9004A2102304501A9004A21213067
:100E54004501A9004A214501A9014A217F304501E4
:100E6400A9004A212E304501A9004A214101550813
:100E74000319452FA0304501A9004A21C03045017E
:100E8400A9004A214D2FA1304501A9004A21C830AB
:100E94004501A9004A21DA304501A9004A2102305E
:100EA4004501A9004A21DB304501A9004A2140300F
:100EB4004501A9004A21A4304501A9004A21A630D0
:100EC4004501A9004A215C229822AF304401E70081
:040ED400BE22080032
:100ED8003021410165084501A9004A2140304501FA
:100EE800A9004A214401E5016508033C031CA12F20
:100EF80065084501A2007330A30009224401E401FA
:100F080064080A3C031C9F2F6508F0000B30F400AE
:100F1800802244016408F0070030F13DDD3070079D
:100F28008400A230713D850000084501A9004A21CE
:0E0F38004401E40A842FE50A782F5C220800A9
:100F460043304401E70052260230FC000830FD0021
:100F5600FD0BAB2FFC0BAB2F000009304401E70063
:100F660097230B30F4000030F500C82570084201C5
:080F7600E8007108E900080021
:040F7E005C220800E9
:100F82007B14FB1FCC2FF201FA1FFF30F200F1009D
:0A0F9200F000FA0DF20CFF30080029
:0E0F9C0040018030F6068831002080310800C8
:100FAA0040017008F8007108F000F101F201F30144
:100FBA00FB01FC019630F300FA01F01FEA2FF80951
:100FCA00F009F80A0319F00AFA177008F10078080C
:0A0FDA00F000F801F2010B230800FB
:100FE40012001E00F003031DF22FF103031DF22F64
:020FF4000800F3
:10100000400172087606A000F801F9017308770222
:10101000031C22287708FD007308F7007D08F30001
:101020007608FD007208F6007D08F2007508FD00E4
:101030007108F5007D08F1007408FD007008F400E7
:101040007D08F00077080319A3287208FA00F21748
:10105000F61777087302F70003195528083077024E
:10106000031C4B28F7007408F9007508F400760893
:10107000F500F60108307702031C4B28F7007408CE
:10108000F9007508F400F50108307702031C4B28BD
:101090007A08F200A3287708031955280310F60CE4
:1010A000F50CF40CF90CF70B4E28A01F6228F90977
:1010B000F409F509F609F90A0319F40A0319F50AFE
:1010C0000319F60A7908F80774080318740FF00773
:1010D00075080318750FF10776080318760FF207E5
:1010E000A01B7B28031C8B28F20CF10CF00CF80CD5
:1010F000F30F8B289D2803189128F809F009F109AE
:10110000F209F80A0319F00A0319F10A0319F20A9D
:101110008030FA0697280130FC0080313A2388316C
:10112000A5280230FC0080313A238831A5280430FC
:10113000FC0080310B238831A5280830FC00803169
:0E11400070228831A5280030FC000000080055
:10114E007408003A031DC0287508003A031DC02814
:10115E007608003A031DC0287708003A031DC02800
:10116E00FF30F000FF30F1007F30F200FF30F3006F
:10117E0062294001770803194E2973080319532970
:10118E00720876068039FA00F217F617A001720877
:10119E00F8007108FC007008FD007408FD02750867
:1011AE00031C750FFC027608031C760FF802F8017B
:1011BE00FC01FD01031CEA280310F20CF10CF00CEB
:1011CE00F80C0130A0007708F302031CF4287E30DF
:1011DE002007F30703185829F9287E302007F30754
:1011EE00031C5D291830FA07FD0DFC0DF80DF00DEE
:1011FE00F10DF20DA00D7408F0027508031C750FA9
:10120E00F1027608031C760FF202760DA004201C64
:10121E0012297D141D297408F00775080318750F1F
:10122E00F10776080318760AF2077D10FA031F30CD
:10123E007A05031DFB287B1B7D1C44290310F00D32
:10124E00F10DF20DA00D7408F0027508031C750F58
:10125E00F1027608031C760FF202760D2004013996
:10126E00FD070318FC0A0319F80A031D4429F80C9C
:10127E00FC0CFD0CF30A03195829FA1FF813780811
:10128E00F2007C08F1007D08F00000306129013089
:10129E00803194238831612902308031492288318E
:1012AE006129043080317022883161290830803103
:0812BE005022883100000800F5
:1012C6004001971180319822883101304401E700AE
:1012D600E8014130E9000030EA001230EB008031CD
:1012E600CF22883103304401E700E8013430E900B9
:1012F6000030EA000C30EB008031CF228831033019
:101306004401E7005430E8005430E9000030EA00B8
:101316000330EB008031CF2288317A30FB00C130B8
:10132600FC008130FD00FD0B9629FC0B9629FB0B7A
:101336009629000000008D1AA2290314A329031080
:0C134600031CA72900009E299715080031
:1013520044016418AF2940019917B129400199133A
:101362004401E418B72940011917B929400119139A
:1013720044016419BF2940019916C12940019912FB
:101382004401E419C72940011916C929400119125B
:101392004401641ACF2940019817D12940019813BA
:1013A2004401E41AD72940011817D929400118131A
:1013B2004401641BDF2940019816E129400198127B
:1013C20044016518E72940019616E9294001961261
:1013D2004401E518EF2940019A14F12940019A10BD
:1013E20044016519F72940019617F929400196131E
:1013F2004401E519FF2940011617012A400116137D
:101402004401651A072A40011814092A40011810DC
:101412004401E51A0F2A40019814112A400198103C
:101422004401651B172A40011815192A4001181199
:10143200440166181F2A40011A10212A40011A1479
:10144200991543013C084401E70043013D0844016A
:10145200E8008031F2258831400199111A30FD00EF
:10146200FD0B312A0000181243013C084401E70039
:1014720043013D084401E8008031F22588314001F2
:10148200181643013C084401E70043013D084401AA
:10149200E8008031F225883140019913191399121D
:1014A200191298131813981296129A10961316136B
:1014B2001810981018111A101530FC00C630FD00D3
:0C14C200FD0B612AFC0B612A00000800F1
:1014CE004001FA017308031D7A147708031DFA14FC
:1014DE007A080319B22A033A03197D2A7A187A2A4E
:1014EE00F61FB02AAE2AF21FAE2AB02A7208803931
:1014FE00FA00F21376088039F6137A0603198B2A4E
:10150E007A080319AE2AB02A770873020319922AB1
:10151E00031CA62AAA2A760872020319992A031C0A
:10152E00A62AAA2A750871020319A02A031CA62A44
:10153E00AA2A740870020319B22A0318AA2AFA08F2
:10154E000319B02AAE2AFA080319AE2AB02A0314D8
:0E155E0008000310080003140315080008001D
:10156C004001FB017308031D770803190C2B72084B
:10157C007606FA007708F3077E30031CC92AF302BB
:10158C000318112BCC2AF302031C162B7208F8003B
:10159C007108FC007008FD00F817F6170310F20133
:1015AC00F101F0011830A0007D1CE62A7408F00748
:1015BC0075080318750FF10776080318760FF207F4
:1015CC00F20CF10CF00CF80CFC0CFD0C0310A00B45
:1015DC00DA2AF21BF62AF80DF00DF10DF20DF303D9
:1015EC007B1B701C082BF81F082BF00A0319F10A3F
:1015FC000319F20A031D082BF20CF10CF00CF30A80
:10160C000319112BFA1FF21300301A2B0130803101
:10161C00492288311A2B02308031702288311A2BE2
:0C162C000430803150228831000008009A
:101638000030F4000030F5000030F6008030F7008C
:1016480044013A08F0003B08F1003C08F2003D086C
:10165800F300A72070084401BE007108BF0072089B
:10166800C0007308C10001304301EF0008306F0269
:101678000318A42B6F08F000F101F035F10DF035D7
:10168800F10D3E3070074401E2000230713DE30085
:10169800013043016F02F300F4010030F43B73089A
:1016A800F0007408F100F035F10DF035F10D3E3021
:1016B800700784000230713D850000084401DE0097
:1016C80001310008DF0001310008E00001310008A5
:1016D800E1005E08F4005F08F5006008F6006108A4
:1016E800F7003A08F0003B08F1003C08F2003D081A
:1016F800F300A72044015E08F4005F08F5006008C5
:10170800F6006108F70000200030F4000030F50012
:101718000030F6008030F700A720440162088600F8
:1017280063088700700881007108413181007208E0
:10173800413181007308413181004301EF0A3A2B9E
:1017480044015A08F0005B08F1005C08F2005D08EB
:04175800F300080092
:10175C0043304401E7008031522688310230FC00CE
:10176C000830FD00FD0BB82BFC0BB82B00000A3029
:10177C004401E70080319723883170084401BA0096
:10178C007108BB007108033A031DCE2BFF307006A5
:10179C00031DEB2B8330E700803152268831023059
:1017AC00FC000830FD00FD0BD92BFC0BD92B0000E5
:1017BC000A304401E70080319723883170084401D6
:1017CC00BA007108BB00BA35BB0D3B08073A031DC4
:1017DC00F12BFE303A06031D552CE70180315226C1
:1017EC0088310230FC000830FD00FD0BFB2BFC0B9C
:1017FC00FB2B00000A304401E7008031972388312D
:10180C0070084401BA007108BB007108033A031D4B
:10181C00112CFF307006031D152C4201E31480318E
:10182C00A327883144013A08F4003B08F500F6017F
:10183C00F70142016808F0006908F1000030F11B63
:10184C00FF30F200F3008031D3218831700844015D
:10185C00BC007108BD007208BE007308BF000A30DE
:10186C00F4003C08F0003D08F1003E08F2003F088F
:10187C00F30074080319482CF336F20CF10CF00C3D
:10188C00FF3E402C44017008BC007108BD0072087A
:10189C00BE007308BF003C08BA003D08BB003A0804
:0818AC00F0003B08F100080008
:1018B400400173087706031D6C2C72087606031D1D
:1018C4006C2C71087506031D6C2C700874060319C2
:0A18D40003150800031108000800C6
:1018DE004101EF0101304201D600D5014401E4017E
:0A18EE000130E500E601A921080021
:1018F80043304401E7008031522688310230FC0031
:101908000830FD00FD0B862CFC0B862C00000830EF
:101918004401E70080319723883170084401BA00F8
:101928007108BB007108033A031D9C2CFF30700638
:10193800031DB92C8330E7008031522688310230EC
:10194800FC000830FD00FD0BA72CFC0BA72C0000A9
:1019580008304401E700803197238831700844013A
:10196800BA007108BB00BA35BB0D3B08073A031D26
:10197800BF2CFE303A06031D232DE7018031522685
:1019880088310230FC000830FD00FD0BC92CFC0B2F
:10199800C92C000008304401E700803197238831C2
:1019A80070084401BA007108BB007108033A031DAE
:1019B800DF2CFF307006031DE32C4201E314803155
:1019C800A327883144013A08F4003B08F500F601E2
:1019D800F70142016808F0006908F1000030F11BC6
:1019E800FF30F200F3008031D321883170084401C0
:1019F800BC007108BD007208BE007308BF000A3041
:101A0800F4003C08F0003D08F1003E08F2003F08F1
:101A1800F30074080319162DF336F20CF10CF00CD0
:101A2800FF3E0E2D44017008BC007108BD0072080D
:101A3800BE007308BF003C08BA003D08BB003A0866
:081A4800F0003B08F10008006A
:101A50004001FB0173080319642D7208FA00F217A4
:101A60008E30F302F31F672DF309F30A0830730277
:101A7000031C4A2DF300F10D7208F100F201083049
:101A80007302031C4A2DF300F10DF1017308031DCD
:101A90000310522D73080319522D0310F20CF10C90
:101AA000F30B4D2D7B1B711C5C2D031C5C2DF10A6F
:101AB0000319F20AF21B732DFA1F762DF209F109B0
:101AC000F10A0319F20A762DF201F101762D7B1449
:101AD000FB1F792DF201FA1F792DFF30F200F10082
:101AE000FA0DF20C792D0130FC007B2D0030FC004A
:101AF0007B2DFF30FC00FC080319812D8031C127AC
:0C1B000088317108F0007208F100080044
:101B0C00400116160930FB001E30FC00E430FD00CD
:101B1C00FD0B8E2DFC0B8E2DFB0B8E2D00008031C2
:101B2C00BF2788316830FC00E430FD00FD0B9C2D94
:101B3C00FC0B9C2D00008031C22688314201631CB5
:101B4C00AD2D63214201631080319822883144010C
:101B5C00E701E8012A30E9000130EA000930EB0026
:101B6C0080312724883180316C2788310230440140
:101B7C00E700E8012030E9000130EA000930EB0011
:101B8C008031272488314401E7012A30E800ED3008
:101B9C00E9000030EA000130EB0080312724883165
:101BAC0002304401E7002A30E800EB30E900003055
:101BBC00EA000130EB008031272488310F304101DD
:101BCC00E9002730EA0064304001DE000030DF001D
:101BDC000F30DC002730DD004101E701E801440152
:101BEC00E401E50180318D26883101302807AC00F5
:101BFC000030293DAD0000302A3DAE0000302B3DB9
:101C0C00AF002808B0002908B1002A08B2002B0840
:101C1C00B300420163116313E3116312E3125B0817
:101C2C004001A40042015C084001A50042015D088E
:101C3C004001A60042015E084001A7004201640871
:101C4C004001D800420165084001D90042016608F4
:0E1C5C004001DA00420167084001DB00080089
:101C6A00710DF80DF90D7408F8027508031C750F4B
:101C7A00F902F00DF10D0F30FC00710DF80DF90DA0
:101C8A007408701C4E2EF8027508031C750FF902B1
:101C9A00532EF80775080318750FF907F00DF10DA3
:101CAA00FC0B422E70185F2E7408F807750803188B
:081CBA00750FF9070000080096
:101CC200400197116F2402304401E700E8016630B9
:101CD200E9000030EA000930EB0080312724883126
:101CE2001930FB005A30FC00B130FD00FD0B772E9D
:101CF200FC0B772EFB0B772E000000000230440114
:101D0200E700E801A230E9000030EA000530EB000C
:101D120080312724883102304401E7002A30E8006C
:101D2200A030E9000030EA000130EB0080312724C6
:101D3200883102304401E7003C30E8006030E900BD
:101D42000030EA000430EB00803127248831DE01C4
:101D5200DF010D30FB002D30FC00D730FD00FD0B04
:101D6200B02EFC0BB02EFB0BB02E0000000097151E
:101D72004201631163124001E5012808AC00290801
:101D8200AD002A08AE002B08AF002808B0002908D1
:0C1D9200B1002A08B2002B08B3000800C2
:101D9E00003044012306031DD62E00302206031DFB
:101DAE00E52EE7013C30E8005130E9000130EA0051
:101DBE000330EB00803127248831472F0030440157
:101DCE002302031DEC2E0A3022020318012F2208D3
:101DDE00E7002308E800A830E9000130EA0080316E
:101DEE00A723883130304301A0002E30A1002D08EA
:101DFE00A2003A2F003044012302031D082F643045
:101E0E00220203181D2F2208E7002308E800A8303D
:101E1E00E9000130EA008031A723883143012C0804
:101E2E00A0002E30A1002D08A2003A2F053044014B
:101E3E002207F0000030233DF1007008A200710867
:101E4E00A3007008E7007108E800A830E90001302F
:101E5E00EA008031A723883120304301A0002B08EF
:101E6E00A1002C08A2004401E7013C30E800A0309C
:101E7E00E9000130EA000330EB008031272488317D
:021E8E0008004A
:101E90007408003A031D552F7508003A031D552F8D
:101EA000FF30F0007F30F100AD2F4001FD01F9015E
:101EB000F801710870040319003471087506FA00FE
:101EC000FA1BFD09FB01F51F6A2FF409F509F40A55
:101ED0000319F50AF11F712FF009F109F00A03192E
:101EE000F10A71087504FA00FA1B862F35267B1853
:101EF000992FFD1F0034F009F109F00A0319F10AC6
:101F0000F809F909F80A0319F90A0034F51F952FA1
:101F1000F11B912F7108F9007008F800F101F00130
:101F2000792FF101F001F00A0034F109F009FB0A00
:101F3000762FF80A0319F90A74087802031D792F1D
:101F400075087902031D792FF901F801F00A0319C8
:0C1F5000F10AF11F792F0000FF34080097
:101F5C004001F8010830FC00700DF80D7408F8020F
:101F6C000318BA2FF8070310F00DFC0BB22F080062
:101F7C0041016F0842015602031CCB2F903199246A
:101F8C0088319031A4238831D12F9031A42388310A
:081F9C009031992488310800FE
:101FA40043014908F000F036F036F036F0360A30D6
:101FB400F4008031802288310F3043014905F1005B
:061FC4007108F00708009F
:101FCA0040017008F800FB01FC019E30F300FA01A1
:101FDA00F201F101F0010230FC0080313A2388312C
:021FEA000800ED
:1020000088317C2490318031D5279031700844018B
:10201000A2007108A3007208A4007308A50088310B
:10202000AE2390318031D527903170084401AE0045
:102030007108AF007208B0007308B1002E08A60046
:102040002F08A7003008A8003108A9000030F400CC
:102050000030F5007A30F6008830F7002208F000F2
:102060002308F1002408F2002508F3008831A72096
:10207000903170084401B2007108B3007208B400D6
:102080007308B5003208A2003308A3003408A40086
:102090003508A5000030F4000030F5007A30F60075
:1020A0008830F7002E08F0002F08F1003008F20009
:1020B0003108F3008831A720903170084401B60040
:1020C0007108B7007208B8007308B9003608A60096
:1020D0003708A7003808A8003908A90042015F089E
:1020E000F0006008F1006108F2006208F3004401AA
:1020F0003208F4003308F5003408F6003508F7001C
:102100008831B622903144013208F4003308F500DA
:102110003408F6003508F7008831B622903170088F
:102120004401AE007108AF007208B0007308B1003E
:1021300042015708F0005808F1005908F2005A0807
:10214000F30044013208F4003308F5003408F600C7
:102150003508F7008831B622903144012E08F4008A
:102160002F08F5003008F6003108F700883100200C
:10217000903170084401B2007108B3007208B400D5
:102180007308B5003208A2003308A3003408A40085
:102190003508A50042015F08F0006008F100610801
:1021A000F2006208F30044013608F4003708F50035
:1021B0003808F6003908F7008831B622903144011A
:1021C0003608F4003708F5003808F6003908F7003B
:1021D0008831B622903170084401AE007108AF001A
:1021E0007208B0007308B10042015708F0005808A7
:1021F000F1005908F2005A08F30044013608F400CF
:102200003708F5003808F6003908F7008831B6229B
:10221000903144012E08F4002F08F5003008F60034
:102220003108F70088310020903170084401A60081
:102230007108A7007208A8007308A9003208F0000E
:102240003308F1003408F2003508F3000030F400E0
:102250000030F5002030F6008230F7008831B622D9
:1022600090310030F4000030F5000030F6007E3090
:10227000F70088310020903188312825903170088E
:102280004201EE007108EF008030F20080307106EC
:102290007202031D4D297008003C03187629400185
:1022A000161E732942015B084001A40042015C082C
:1022B0004001A50042015D084001A60042015E0800
:1022C0004001A700420164084001D80042016508AE
:1022D0004001D900420166084001DA004201670866
:1022E0004001DB007629883186259031803042011B
:1022F0006F06F00080306D067002031D81296C08A6
:102300006E02031887294301BA01BB01B22A4401B6
:102310002208F4002308F5002408F6002508F70039
:102320002608F0002708F1002808F2002908F30029
:102330008831672290310130031C0030F0007008B2
:102340000319A829E7304301BA000330BB00B22AC1
:1023500044012208F4002308F5002408F6002508AB
:10236000F7002608F0002708F1002808F2002908E5
:10237000F3008831A720903170084401BA00710839
:10238000BB007208BC007308BD0088311C2390316B
:102390007008AA007108AB007208AC007308AD00A9
:1023A0002A08F4002B08F5002C08F6002D08F70089
:1023B0000030F0000030F1000030F2007F30F30018
:1023C0008031CE279031F401F501F601F701883113
:1023D0005A2490310130031D0030F00070080319B9
:1023E000FA296F304401AA001230AB000330AC0070
:1023F0007530AD0044010030F0000030F1000030D5
:10240000F2007F30F3002A08F4002B08F5002C08B6
:10241000F6002D08F7008831002090317008440143
:10242000AE007108AF007208B0007308B1002A084E
:10243000F4002B08F5002C08F6002D08F7000030FA
:10244000F0000030F1000030F2007F30F300803106
:10245000CE2790317008F4007108F5007208F6007C
:102460007308F70044012E08F0002F08F10030082F
:10247000F2003108F3008831A72090317008440140
:10248000AA007108AB007208AC007308AD00003000
:10249000F4000030F5000030F6007F30F7002A0825
:1024A000F0002B08F1002C08F2002D08F300883111
:1024B00067229031013003180030F00070080319D2
:1024C0006A2A00304401AA000030AB000030AC00A2
:1024D0007F30AD0044012A08F4002B08F5002C08D9
:1024E000F6002D08F7008F30F000C230F1001F30E9
:1024F000F2008230F30088316722903101300318F6
:102500000030F000700803198B2AE7304301BA004D
:102510000330BB00B22A44012A08F0002B08F10066
:102520002C08F2002D08F3000030F4000030F50014
:102530004830F6008530F7008831B62290310030FF
:10254000F4000030F5000030F6007E30F7008831EE
:102550000020903188312825903170084301BA005D
:062560007108BB00080039
:1025660096304301EB000030EC002C30ED000130DA
:10257600EE004401A001A1014201EE01EF01430179
:10258600BA01BB014401A001A101803042016F06DE
:10259600F00080306D067002031DD32A6C086E02AF
:1025A600031CE22A80306B06F00080306F06700252
:1025B600031DDF2A6E086A02031CE22AA32B631D91
:1025C600EB2A8831612690314301BA01BB01A32B66
:1025D6004201E31DF22A4301BA01BB01A32B4301C9
:1025E600E830E6000330E7000530EA006A08003C00
:1025F60003182B2B002067083B02031D042B6608DB
:102606003A0203181C2B3A08E6003B08E700420191
:102616006E084301E80042016F084301E9000630F5
:10262600FC003030FD00FD0B162BFC0B162B0000BA
:10263600282B6608BA006708BB0068084201EE004E
:10264600430169084201EF002B2B4301EA03F92AF3
:10265600803042016D06F10080306F067102031D65
:10266600362B6E086C02013003180030F100803002
:102676006F06F00080306B067002031D442B6A085B
:102686006E02013003180030F0007108F0050319DE
:102696004D2BA32B43016C08003C031D542B6B08E8
:1026A600003C03186F2B0130EB020030EC3B42017B
:1026B6006F0844012102031D642B42016E08440188
:1026C600200203186E2B42016E084401A00042014D
:1026D6006F084401A100A22B4401210840015D06B8
:1026E600031D782B5C08440120060319822B440144
:1026F6002008A2002108A3008831CF26903144018A
:1027060020084001DC00440121084001DD004401AD
:10271600A001A10132304301EB000030EC006E084D
:10272600003C031D982B6D08003C03189F2B0130BD
:10273600ED020030EE3BA22BBA01BB01A32BC82A47
:02274600080089
:1027480041016F084301E5000A30F40041016F08B8
:10275800F0008831AE27903170084301E40070081A
:10276800003A031DB92B0130E400B32243013A08B3
:10277800E2003B08E300640841016F07F0007008BD
:10278800EF0070084401E400420156084401E500E6
:10279800420155084401E6008831A9219031B3224D
:1027A800803043016306F00080303B067002031D51
:1027B800DF2B3A086202031C3C2C3A08E2003B0873
:1027C800E30041016F084301E50064084101EF0798
:1027D800430164087F3CF100F2010030F23B803095
:1027E8007206F00080307002031DFD2B41016F0856
:1027F8007102031C3B2C41016F084401E4004201B3
:1028080056084401E500420155084401E6008831B4
:10281800A9219031B322803043016306F000803053
:102828003B067002031D1A2C3A086202031C362C60
:1028380041016F084301E5003A08E2003B08E30064
:102848000A30F40041016F08F0008831AE2790315A
:1028580070084301E4007008003A031D352C01306C
:10286800E400372C3B2C64084101EF07EC2B852C46
:1028780043013A08E2003B08E30064084101EF0223
:102888004301640841016F02031C852C6F08440151
:10289800E400420156084401E5004201550844019C
:1028A800E6008831A9219031B322803043016306C4
:1028B800F00080303B067002031D642C3A08620267
:1028C800031C802C41016F084301E5003A08E2002F
:1028D8003B08E3000A30F40041016F08F00088313A
:1028E800AE27903170084301E4007008003A031DD8
:1028F8007F2C0130E400812C852C64084101EF0213
:10290800442C430165084101EF0043016508440177
:10291800E400420156084401E5004201550844011B
:0A292800E6008831A9219031080073
:10293200420156084301E5000A30F40042015608FC
:10294200F0008831AE27903170084301E40070082E
:10295200003A031DAE2C0130E400B32243013A08D1
:10296200E2003B08E300640842015607F0007008E9
:10297200D60041016F084401E4007008E5004201FD
:1029820055084401E6008831A9219031B3228030F4
:1029920043016306F00080303B067002031DD32C16
:1029A2003A086202031C302D3A08E2003B08E300B9
:1029B200420156084301E50064084201D60743017B
:1029C20064087F3CF100F2010030F23B8030720675
:1029D200F00080307002031DF12C42015608710292
:1029E200031C2F2D41016F084401E40042015608E7
:1029F2004401E500420155084401E6008831A9215D
:102A02009031B322803043016306F00080303B06F0
:102A12007002031D0E2D3A086202031C2A2D420188
:102A220056084301E5003A08E2003B08E3000A3099
:102A3200F40042015608F0008831AE279031700848
:102A42004301E4007008003A031D292D0130E4001F
:102A52002B2D2F2D64084201D607E02C7A2D43013D
:102A62003A08E2003B08E30064084201D60243014F
:102A7200640842015602031C7A2D41016F08440189
:102A8200E400420156084401E500420155084401B0
:102A9200E6008831A9219031B322803043016306D8
:102AA200F00080303B067002031D592D3A08620285
:102AB200031C752D420156084301E5003A08E20065
:102AC2003B08E3000A30F40042015608F000883166
:102AD200AE27903170084301E4007008003A031DEC
:102AE200742D0130E400762D7A2D64084201D6025D
:102AF200382D430165084201D60041016F084401A7
:102B0200E400430165084401E5004201550844011F
:0A2B1200E6008831A9219031080087
:102B1C004301E401B3220A30F4000030F500430114
:102B2C003A08F0003B08F1008831482790317008D2
:102B3C004301E2007108E30001304201D60040304D
:102B4C0056020318E32D41016F084401E4004201D1
:102B5C0056084401E500420155084401E60088315D
:102B6C00A9219031B3220A30F4000030F500430162
:102B7C003A08F0003B08F100883148279031700882
:102B8C004301BA007108BB0080306306F20080304C
:102B9C0071067202031DD42D70086202031CDF2D16
:102BAC00420156084301E4003A08E2003B08E30006
:102BBC00E02DE32D4201D635A52D430164084201D9
:102BCC00D60041016F084401E4004301640844014C
:102BDC00E500420155084401E6008831A9219031F5
:022BEC000800DF
:102BEE004301E401B3220A30F4000030F500430142
:102BFE003A08F0003B08F100883148279031700800
:102C0E004301E2007108E30001304101EF00403062
:102C1E006F0203184B2E6F084401E40041016F0848
:102C2E004401E500420155084401E6008831A9211E
:102C3E009031B3220A30F4000030F50043013A0817
:102C4E00F0003B08F10088314827903170084301AD
:102C5E00BA007108BB0080306306F2008030710646
:102C6E007202031D3C2E70086202031C472E4101A6
:102C7E006F084301E4003A08E2003B08E300482EE7
:102C8E004B2E4101EF350E2E430164084101EF003A
:102C9E00430164084201D600430164084401E40084
:102CAE00430164084401E500420155084401E60071
:082CBE008831A92190310800C2
:102CC6004301E401B3220A30F4000030F500430169
:102CD6003A08F0003B08F100883148279031700827
:102CE6004301E2007108E30001304101EF0040308A
:102CF6006F020318B72E6F084401E400420156081C
:102D06004401E500420155084401E6008831A92145
:102D16009031B3220A30F4000030F50043013A083E
:102D2600F0003B08F10088314827903170084301D4
:102D3600BA007108BB0080306306F200803071066D
:102D46007202031DA82E70086202031CB32E4101F5
:102D56006F084301E4003A08E2003B08E300B42EA2
:102D6600B72E4101EF357A2E430164084101EF0089
:102D7600430164084401E400420156084401E500A9
:102D8600420155084401E6008831A9219031080026
:102D960010304301DC002730DD001030DE00273024
:102DA600DF001030E0002730E1008E256326B322D5
:102DB6008030F000803043013B067002031DE52E93
:102DC6003A08783C031CE82EE52F3A08DC003B085D
:102DD600DD0041016F084301D60042015608430158
:102DE600D70042015608023C0130031C0030F100B6
:102DF60041016F08023C0130031C0030F0007108ED
:102E0600F0050319302F4201D6014101EF014401BB
:102E1600E401E501420155084401E6008831A92193
:102E2600903163268E25B3228030F0008030430136
:102E36003B067002031D212F3A08783C031C242F01
:102E4600E52F3A08DE003B08DF0041016F08430129
:102E5600D800420156084301D90042015608023CF7
:102E66000130031C0030F10041016F08023C0130C3
:102E7600031C0030F0007108F00503196B2F4201A6
:102E8600D6014101EF014401E401E5014201550883
:102E96004401E6008831A9219031F725B32280301C
:102EA600F000803043013B067002031D5C2F3A0898
:102EB600783C031C5F2FE52F3A08E0003B08E10051
:102EC60041016F084301DA00420156084301DB0065
:102ED600430180305F06F10080305D067102031DFC
:102EE600762F5C085E020130031C0030F100803052
:102EF6006106F00080305D067002031D842F5C08B9
:102F060060020130031C0030F0007108F00503195F
:102F1600942F57084201D600430156084101EF009D
:102F2600E52F803043015D06F10080305F067102B7
:102F3600031D9F2F5E085C020130031C0030F10068
:102F460080306106F00080305F067002031DAD2FF1
:102F56005E0860020130031C0030F0007108F005C5
:102F66000319BD2F59084201D600430158084101F3
:102F7600EF00E52F803043015D06F10080306106E9
:102F86007102031DC82F60085C020130031C00306B
:102F9600F10080305F06F000803061067002031D8C
:102FA600D62F60085E020130031C0030F000710865
:102FB600F0050319E52F5B084201D60043015A08C4
:062FC6004101EF000800CC
:102FCC0097304301B0000330B1006730B2000230DB
:102FDC00B30041019301940195019601EC309A05DF
:082FEC001316131593170800DA
:103000004201D6014101EF014401E401E501420121
:1030100055084401E6008831A92198319031B32246
:1030200098318030F000803043013B067002031D70
:103030001B283A08783C031C1E2834289031CB26E4
:1030400098319031B32298318030F00080304301C4
:103050003B067002031D2E283A08783C031C3128D9
:0A30600034288831BE27983108009B
:10306A009031B32298318030F000803043013B0622
:10307A007002031D42283A08783C031C4528BE28E2
:10308A0000209031B32298318030F0008030430123
:10309A003B067002031D53283A08783C031C562845
:1030AA00BE283A08D2003B08D30042015608430121
:1030BA00D40041016F084301D50042015508013A85
:1030CA00031D6928D5016B280130D50000209031F5
:1030DA00B3229831803043015306F00080303B061A
:1030EA007002031D7A283A08520203189F284201E7
:1030FA005508013A031D8328D50185280130D500DA
:10310A00430154084201D600430155084101EF002A
:10311A00430155084401E400430154084401E50011
:10312A00420155084401E6008831A92198319031BD
:10313A00B32298318030F000803043013B067002A0
:10314A00031DA9283A08783C031CAC28BE288831FC
:10315A00BE2798319031B322983143013B08033A94
:10316A00031DB928E7303A06031DBE2888316F24AB
:04317A009831080080
:10317E004001971102304401E700E801C530E90033
:10318E000030EA000930EB00803127249831191104
:10319E00352043013A084101E70043013B08410154
:1031AE00E80043013A084001DE0043013B084001BC
:1031BE00DF0002304401E700E801C030E9000030D2
:1031CE00EA000430EB0080312724983102304401AC
:1031DE00E7002A30E800D330E9000030EA00013081
:1031EE00EB00803127249831410167084401E40047
:1031FE00410168084401E50080318D26983119158A
:10320E00971542016313E3124001E5012808AC0053
:10321E002908AD002A08AE002B08AF002808B00020
:0E322E002908B1002A08B2002B08B3000800DE
:10323C00803130219831410165084501A900803168
:10324C004A21983140304501A90080314A219831FA
:10325C000A30F4000030F50043014908F0004A0838
:10326C00F10088314827983170084301C900710872
:10327C00CA0080307106F2008030013A7202031DE0
:10328C0049292C307002031850292C30C900013008
:10329C00CA0060298030013AF00080304A06700282
:1032AC00031D5A294908A43C03186029A430C900FD
:1032BC000130CA002C304902F30001304A3BF400C3
:1032CC007308C9007408CA000530F2007308F000D6
:1032DC007408F100720803197729F035F10DFF3EDF
:1032EC0071297008C9007108CA007830F4000030E8
:1032FC00F50088314827983170084301CC0019300B
:10330C007002031C932918304C02CD000830CE00FB
:10331C000830CF000830D000B12911304C02031C0A
:10332C00A029CD0110304C02CE000830CF0008305F
:10333C00D000B12909304C02031CAC29CD01CE01BF
:10334C0008304C02CF000830D000B129CD01CE019D
:10335C00CF014C08D0008030D10001304D02F0007C
:10336C00F1010030F13B7008F1005108F0007108D8
:10337C000319C329F036FF3EBE297008FF3CD1006B
:10338C00D10A0330D1044501A2017730A30080316A
:10339C0009229831430151084501A90080314A2185
:1033AC009831430151084501A90080314A219831D7
:1033BC00430151084501A90080314A2198311F3041
:1033CC004301D1044501A2017530A30080310922CB
:1033DC009831430151084501A90080314A219831A7
:1033EC00430151084501A90080314A21983145011A
:1033FC00A2017A30A300803109229831430151088F
:10340C004501A90080314A219831430151084501F9
:10341C00A90080314A21983180304301D10001301C
:10342C004E02F000F1010030F13B7008F100510840
:10343C00F00071080319252AF036FF3E202A700887
:10344C00FF3CD100D10A01304501A2007530A30028
:10345C008031092298314301CB014B08063C031CF7
:10346C00402A51084501A90080314A219831430175
:10347C00CB0A332A8030D10001304F02F000F10129
:10348C000030F13B7008F1005108F000710803198D
:10349C00522AF036FF3E4D2A7008FF3CD100D10A6B
:1034AC0002304501A2007530A30080310922983109
:1034BC004301CB014B08063C031C6D2A5108450106
:1034CC00A90080314A2198314301CB0A602A80300F
:1034DC00D10001305002F000F1010030F13B7008D6
:1034EC00F1005108F000710803197F2AF036FF3EF5
:1034FC007A2A7008FF3CD100D10AC030D1040330C5
:10350C004501A2007530A300803109229831430196
:10351C00CB014B08063C031C9C2A51084501A90011
:10352C0080314A2198314301CB0A8F2A80315C22A9
:04353C0098310800BA
:103540008B1340019E134E018C1216167E01CA1277
:10355000C91640011612171697154301C9014908EB
:10356000003A031DC22A0530FB000F30FC00F13089
:10357000FD00FD0BB92AFC0BB92AFB0BB92A7E0111
:10358000CA12630000000530FB000F30FC00F13070
:10359000FD00FD0BC92AFC0BC92AFB0BC92A4001FF
:1035A0008D1AD42A0314D52A0310031CDA2A4301E6
:1035B000C90ADC2A4301C90149080F3C0318E12A62
:1035C000E22AAF2A4E0116127E01C912CA12400128
:1035D0009E178B17420163148831862598318D1A06
:1035E000F32A0314F42A0310031CF82A0000EF2A1C
:1035F000E501420163116313E31140012808410111
:10360000CF00400129084101D00040012A084101B2
:0C361000D10040012B084101D20008004D
:10361C00643043013802BE000030393BBF00033038
:10362C00FB000830FC007730FD00FD0B1B2BFC0B66
:10363C001B2BFB0B1B2BC001C101C201C301C4011D
:10364C00C50180304506F000803035067002031D40
:10365C00312B3408440203185E2B90310020983132
:10366C0080304106F000803042016F067002031D6D
:10367C00422B6E08430140020318502B42016E0886
:10368C004301C00042016F084301C1003A08C20067
:10369C003B08C3000B30FC006230FD004301FD0B06
:1036AC00542BFC0B542B0000C40A0319C50A272BFE
:1036BC008030F000803041067002031D672B4008FB
:1036CC00003C0318902B4001161E8D2B42015B0809
:1036DC004001A40042015C084001A50042015D08C4
:1036EC004001A60042015E084001A70042016408A7
:1036FC004001D800420165084001D900420166082A
:10370C004001DA00420167084001DB00902B883150
:10371C00862598314301410840015D06031D992B14
:10372C005C08430140060319CC2B4201E31CAC2B73
:10373C004401E7012A30E800AA30E9000030EA0031
:10374C000130EB00803127249831B92B4401E7017B
:10375C002A30E800A830E9000030EA000130EB0024
:10376C00803127249831430140084001DC0043019B
:10377C0041084001DD00430140084401A20043011F
:10378C0041084401A3008831CF2698318030F000E5
:10379C008030430143067002031DD62B4208633C64
:1037AC000318132C430841016806031DE02B67081E
:1037BC00430142060319132C430142084101E7005F
:1037CC00430143084101E800803043014106F00009
:1037DC00803042016D067002031DF72B6C0843010B
:1037EC0040020318082C4301C201C30141016708C0
:1037FC004401E400410168084401E50080318D2654
:10380C009831032D410167084401E4004101680827
:10381C004401E50080318D2698314201E31C942C43
:10382C0003304301C4000030C50000304506031DC1
:10383C00212C0030440603195E2C02304401E700B1
:10384C000630E800B630E9000030EA000930EB0041
:10385C008031272498311530FB004B30FC00BE30F2
:10386C00FD00FD0B372CFC0B372CFB0B372C000011
:10387C0002304401E700E801AC30E9000030EA0016
:10388C000930EB008031272498311530FB004B3088
:10389C00FC00BE30FD00FD0B512CFC0B512CFB0B26
:1038AC00512C000001304301C4020030C53B1B2CDD
:1038BC0002304401E700E801DA30E9000030EA00A8
:1038CC000930EB0080312724983102304401E700A5
:1038DC002A30E800D830E9000030EA000130EB0073
:1038EC00803127249831430142084401E40043010C
:1038FC0043084401E50080318D2698311530FB00DA
:10390C004B30FC00BE30FD00FD0B8A2CFC0B8A2CCE
:10391C00FB0B8A2C00004201E310032DE31F032D47
:10392C00803043014106F000803042016D06700288
:10393C00031DA32C6C0843014002031C032D4301FF
:10394C0080304106F000803042016B067002031D8E
:10395C00B22C6A08430140020318032D4301803046
:10396C00F000803043067002031DBE2C4208783CE8
:10397C000318032D40015E0843014202F10040018F
:10398C005F084301433BF20080303F06F00080307B
:10399C0072067002031DD42C71083E02031C012D0B
:1039AC00420840015E02F1004301430840015F3BC5
:1039BC00F200803043013F06F00080307206700246
:1039CC00031DEA2C71083E02031C012D3E08E73C46
:1039DC00F1003F08031C013E033CF20080307206EC
:1039EC00F000803043067002031DFE2C4208710269
:0C39FC00031C012D032DBF20032D08002B
:103A080040019711161619119031B3229831803060
:103A1800F000803043013B067002031D152D3A0863
:103A2800633C0318182D35204001191543013A0845
:103A38004101E70043013B084101E80040019715B7
:063A48004201E312080038
:103A4E008031A3279831690841016A06031D322D82
:103A5E0069084201680603195F2D42016808410199
:103A6E00E900420169084101EA0042016808430188
:103A7E00C900420169084301CA001E2180300E3A76
:103A8E00F0008030420169067002031D502D680857
:103A9E00D83C031C5A2D013043013607BC000030C0
:103AAE00373DBD005F2D43013608BC003708BD0011
:103ABE0080300E3AF0008030420169067002031D1C
:103ACE006A2D6808743C03187E2D40019711171655
:103ADE000230FB003830FC00AD30FD00FD0B752DC3
:103AEE00FC0B752DFB0B752D97151716AE2D803013
:103AFE000E3AF0008030420169067002031D892DD6
:103B0E006808063C03189D2D4001971117120230CC
:103B1E00FB003830FC00AD30FD00FD0B942DFC0B8E
:103B2E00942DFB0B942D97151716AE2D40011712E1
:103B3E0097150230FB003830FC00AD30FD00FD0B58
:103B4E00A62DFC0BA62DFB0BA62D17169715803058
:103B5E0042016906F00080300D3A7002031DB92D46
:103B6E00483068020318DA2D8031982298310130DE
:103B7E004401E700E8013430E9000130EA000B307F
:103B8E00EB008031272498315230FB002B30FC00A3
:103B9E000030FD00FD0BD12DFC0BD12DFB0BD12DDB
:083BAE0000001612A02208001D
:103BB6007E01B801C3014314C3144315CE01E401C9
:103BC600D90153019013941340018C018D018E018C
:103BD6008F019001960197011030980006309900E8
:103BE6009A019101273092009301940195017E017B
:103BF6003A15BA15DB145B1540019F121F179F1368
:103C06001E16C0309C00E0309D004E018C12400113
:103C16009E174E0196161E304F019600FE309700F5
:103C2600473098007F30990077309A00DF309B004C
:103C36008B170530FB000F30FC00F130FD00FD0B4B
:0C3C4600222EFC0B222EFB0B222E08006D
:103C520080319822983101304401E700E801403078
:103C6200E9000130EA000B30EB0080312724983163
:103C72005230FB002B30FC000030FD00FD0B3F2ECC
:0E3C8200FC0B3F2EFB0B3F2E0000A022080083
:103C90004301BE010A303E020318642EBF30860085
:103CA000013087003E0886070318870A70308400B9
:103CB000F73085003E0884070318850A0008F000E5
:103CC00070088100BE0A4A2E3F08C9008831D227F9
:103CD000983170084201DB00DC01DD01DE015B0888
:103CE000F0005C08F1005D08F2005E08F30060304F
:103CF000F400EA30F500F601F7018031D321983164
:103D000070084201DB007108DC007208DD007308F6
:103D1000DE0043014008C9008831D227983170087D
:103D20004201E400E501E601E7016408F0006508EE
:103D3000F1006608F2006708F3006030F400EA3032
:103D4000F500F601F7018031D32198317008420166
:103D5000E4007108E5007208E6007308E70043011B
:103D60004108C9008831D22798317008B600B701E0
:103D70004208C9008831D227983170084201EC000E
:103D8000ED0143014308C9008831D22798310A3038
:103D9000F40080318022983170084201EA007108F5
:103DA000EB0043014408C9008831D22798310A301A
:103DB000F40080318022983170084301B800710806
:103DC000B9004508C9008831D22798317018EB2E08
:103DD0004201E313ED2E4201E31743014608C900F7
:103DE0008831D22798318831E52798310030F400A6
:103DF0000030F5002030F6008230F7008831A7202F
:103E0000983170084201D7007108D8007208D900B3
:103E10007308DA0043014708C9008831D227983176
:103E20008831E52798310030F4000030F500483043
:103E3000F6008530F7008831A72098310030F40073
:103E40000030F5000030F6007F30F70088310020A8
:103E5000983170084201DF007108E0007208E1004B
:103E60007308E20043014808C9008831D22798311D
:103E70000A30F4008031802298310630F40000309E
:103E8000F50088314827983170084301B400710863
:0C3E9000B5003608BC003708BD00080073
:1040000026239831DB25A03198314826A031400184
:10401000171619154201631488318625A031903195
:10402000E627A0314201E3105B084001A4004201F1
:104030005C084001A50042015D084001A600420164
:104040005E084001A700420164084001D800420117
:1040500065084001D900420166084001DA004201CA
:1040600067084001DB0040012F082B02031D422896
:104070002E082A02031D42282D082902031D42286A
:104080002C082802031C4E28B830AC070B30AD3D7D
:104090000030AE3DAF3D98312725A03140013308B7
:1040A0002B02031D5D2832082A02031D5D283108FA
:1040B0002902031D5D2830082802031C69282C30C2
:1040C000B0070130B13D0030B23DB33D98310E2311
:1040D000A0310030F00042015E06031D792870080F
:1040E0005D06031D792870085C06031D79285B08AE
:1040F000003A03198E280030F00040012706031D06
:104100008B2870082606031D8B2870082506031DC2
:104110008B282408003A031D8E2816120030F00068
:1041200042016706031D9E2870086606031D9E282F
:1041300070086506031D9E286408003A0319B52817
:104140000030F00040015B06031DB02870085A06DD
:10415000031DB02870085906031DB0285808003AFE
:10416000031DB5289831A022A0314201631DC22849
:104170004001161EBF2888316126A031C22888312F
:104180008625A0314201631FCF284001161ECC288E
:104190009831BF20A031CF2888318625A031420137
:1041A000E31DDC284001161ED92898312926A031AC
:1041B000DC2888318625A0314201631EE8284001B1
:1041C000161AE52888318625A03188316126A0316C
:1041D0004201E31EF8284001161AF52898310425FB
:1041E000A03188318625A031F8289831BF20A03130
:0441F0003328F9284F
:10464C004E3084009F3085004C30F0000130F1007A
:10465C0024308600003087008031F227A0319A3058
:10466C0084009F3085004B30F0000130F100A03009
:10467C008600003087008031F227A031E5308400BD
:10468C009F3085001430F0000130F100203086009E
:10469C00013087008031F227A031FB308400873055
:1046AC0085000430F0000130F100EB308600003062
:1046BC0087008031F227A03109308400A3308500B7
:1046CC001D30F0000130F1003430860001308700DD
:1046DC008031F227A0310330840080308500013016
:1046EC00F0000130F100EF3086000030870080319F
:1046FC00F227A031F63084008F3085000630F000B0
:10470C000130F10051308600013087008031F227F2
:04471C00A0310800C0
:020006000034C4
:040FF6003D34003452
:040FFA003D3400344E
:081FEC0030342E34303400348F
:021FF4000034B7
:021FF6000034B5
:083E9C000A3400340034003444
:083EA400003400340034003446
:083EAC0000340034003400343E
:083EB400003400340034003436
:103EBC002034463457342034563445345234533439
:0A3ECC0049344F344E3420340034E2
:103ED6002034443445345334493447344E3445341D
:103EE600443420344234593420344E343734443444
:063EF600443443340034A3
:083EFC0031342E343634003459
:083F04000A34003400340034DB
:043F0C000F34273413
:043F100064340034E1
:0A3F140030342E34303430340034E1
:023F1E0000346D
:103F2000523445345334453454342034203420340E
:043F30002034003405
:043F34003D340034E4
:0C3F380053345734523420342034003409
:043F44003D340034D4
:043F48003E340034CF
:103F4C0020342034203420342034203420342034C5
:043F5C0020340034D9
:103F60004F345634453452344C344F344134443455
:043F700020340034C5
:0A3F74005334573452342034003423
:103F7E00543455344E3445342034203420342034D7
:043F8E0020340034A7
:083F9200003400340034003457
:043F9A003D3400347E
:023F9E000134EC
:023FA0004034AB
:023FA2000034E9
:043FA4003D34003474
:103FA80053345734523420342034203420342034CD
:043FB800203400347D
:023FBC000234CD
:043FBE00783400341F
:043FC2000034003493
:043FC600003400348F
:103FCA0053345734523420342034203420342034AB
:043FDA00203400345B
:103FDE00503457345234203420342034203420349A
:043FEE005734003410
:1041FA0000340034003400340034003400345F34B6
:10420A0000340034003407340034073400341434E2
:10421A007F3414347F34143424342A347F342A34D7
:10422A00123423341334083464346234363449344F
:10423A005534223450340034053403340034003405
:10424A0000341C34223441340034003441342234E2
:10425A001C34003408342A341C342A340834083410
:10426A0008343E34083408340034503430340034CE
:10427A00003408340834083408340834003430343C
:10428A003034003400342034103408340434023416
:10429A003E345134493445343E34003442347F3458
:1042AA004034003442346134513449344634213480
:1042BA00413445344B3431341834143412347F3495
:1042CA001034273445344534453439343C344A347F
:1042DA0049344934303401347134093405340334EF
:1042EA003634493449344934363406344934493445
:1042FA0029341E3400343634363400340034003461
:10430A005634363400340034003408341434223439
:10431A0041341434143414341434143441342234EB
:10432A001434083400340234013451340934063464
:10433A0032344934793441343E347E3411341134C0
:10434A0011347E347F3449344934493436343E3466
:10435A0041344134413422347F34413441342234AB
:10436A001C347F3449344934493441347F34093464
:10437A000934013401343E34413441345134323445
:10438A007F340834083408347F34003441347F34AD
:10439A00413400342034403441343F3401347F34D2
:1043AA0008341434223441347F34403440344034A5
:1043BA0040347F340234043402347F347F3404348A
:1043CA00083410347F343E344134413441343E346D
:1043DA007F3409340934093406343E3441345134C3
:1043EA0021345E347F34093419342934463446344E
:1043FA004934493449343134013401347F34013485
:10440A0001343F344034403440343F341F34203484
:10441A00403420341F347F342034183420347F341D
:10442A00633414340834143463340334043478346D
:10443A000434033461345134493445344334003448
:10444A0000347F34413441340234043408341034A3
:10445A002034413441347F3400340034043402348B
:10446A00013402340434403440344034403440345B
:10447A0000340134023404340034203454345434C3
:10448A00543478347F3448344434443438343834F7
:10449A00443444344434203438344434443448347E
:1044AA007F343834543454345434183408347E3411
:1044BA0009340134023408341434543454343C3446
:1044CA007F340834043404347834003444347D347A
:1044DA00403400342034403444343D340034003411
:1044EA007F34103428344434003441347F34403427
:1044FA0000347C3404341834043478347C3408347A
:10450A000434043478343834443444344434383445
:10451A007C34143414341434083408341434143401
:10452A0018347C347C340834043404340834483471
:10453A00543454345434203404343F3444344034EE
:10454A0020343C344034403420347C341C3420340D
:10455A00403420341C343C344034303440343C340D
:10456A00443428341034283444340C34503450340D
:10457A0050343C344434643454344C344434003479
:10458A000834363441340034003400347F34003483
:10459A0000340034413436340834003408340834E2
:1045AA002A341C34083408341C342A3408340834B5
:1045BA00F834F8341F341F340334033403341F34FB
:1045CA001F34F834F834FF34FF3400340034003434
:1045DA000034003400340034FF34FF34FF34FF3435
:1045EA000034003400340034003400340034FF3422
:1045FA00FF34FF34FF34C034C034C034C034C03454
:08460A00C034C034FF34FF345A
:10461200203420344C344F34573420344234413423
:084622005434543420340034F8
:10462A00203450344F3457344534523420344F34C4
:08463A004634463420340034FC
:0A46420030342E34303430340034AC
:10EEE000053430340734103415341334003404340A
:04EEF0001434603442
:020000040001F9
:0A000E000429213E1F3F03300300C8
:00000001FF
